{
  "abi": [
    {
      "inputs": [],
      "stateMutability": "nonpayable",
      "type": "constructor"
    },
    {
      "stateMutability": "payable",
      "type": "fallback"
    },
    {
      "inputs": [],
      "name": "CETH_ADDRESS",
      "outputs": [
        {
          "internalType": "address",
          "name": "",
          "type": "address"
        }
      ],
      "stateMutability": "view",
      "type": "function"
    },
    {
      "inputs": [],
      "name": "DAI_ADDRESS",
      "outputs": [
        {
          "internalType": "address",
          "name": "",
          "type": "address"
        }
      ],
      "stateMutability": "view",
      "type": "function"
    },
    {
      "inputs": [],
      "name": "UNISWAP_FACTORY_ADDRESS",
      "outputs": [
        {
          "internalType": "address",
          "name": "",
          "type": "address"
        }
      ],
      "stateMutability": "view",
      "type": "function"
    },
    {
      "inputs": [],
      "name": "WETH_ADDRESS",
      "outputs": [
        {
          "internalType": "address",
          "name": "",
          "type": "address"
        }
      ],
      "stateMutability": "view",
      "type": "function"
    },
    {
      "inputs": [
        {
          "internalType": "address",
          "name": "_caller",
          "type": "address"
        }
      ],
      "name": "blacklistCaller",
      "outputs": [],
      "stateMutability": "nonpayable",
      "type": "function"
    },
    {
      "inputs": [
        {
          "internalType": "address",
          "name": "",
          "type": "address"
        }
      ],
      "name": "callers",
      "outputs": [
        {
          "internalType": "bool",
          "name": "",
          "type": "bool"
        }
      ],
      "stateMutability": "view",
      "type": "function"
    },
    {
      "inputs": [
        {
          "internalType": "address",
          "name": "comptroller",
          "type": "address"
        },
        {
          "internalType": "address[]",
          "name": "cTokens",
          "type": "address[]"
        }
      ],
      "name": "enterMarkets",
      "outputs": [
        {
          "internalType": "uint256[]",
          "name": "",
          "type": "uint256[]"
        }
      ],
      "stateMutability": "nonpayable",
      "type": "function"
    },
    {
      "inputs": [
        {
          "internalType": "address",
          "name": "comptroller",
          "type": "address"
        },
        {
          "internalType": "address",
          "name": "cToken",
          "type": "address"
        }
      ],
      "name": "exitMarket",
      "outputs": [
        {
          "internalType": "uint256",
          "name": "",
          "type": "uint256"
        }
      ],
      "stateMutability": "nonpayable",
      "type": "function"
    },
    {
      "inputs": [
        {
          "internalType": "address",
          "name": "borrowAccount",
          "type": "address"
        },
        {
          "internalType": "address",
          "name": "cTokenBorrowed",
          "type": "address"
        },
        {
          "internalType": "address",
          "name": "cTokenCollateral",
          "type": "address"
        },
        {
          "internalType": "uint256",
          "name": "repayBorrowAmount",
          "type": "uint256"
        }
      ],
      "name": "liquidate",
      "outputs": [
        {
          "internalType": "uint256",
          "name": "",
          "type": "uint256"
        }
      ],
      "stateMutability": "nonpayable",
      "type": "function"
    },
    {
      "inputs": [],
      "name": "owner",
      "outputs": [
        {
          "internalType": "address",
          "name": "",
          "type": "address"
        }
      ],
      "stateMutability": "view",
      "type": "function"
    },
    {
      "inputs": [
        {
          "internalType": "address",
          "name": "sender",
          "type": "address"
        },
        {
          "internalType": "uint256",
          "name": "amount0",
          "type": "uint256"
        },
        {
          "internalType": "uint256",
          "name": "amount1",
          "type": "uint256"
        },
        {
          "internalType": "bytes",
          "name": "_data",
          "type": "bytes"
        }
      ],
      "name": "uniswapV2Call",
      "outputs": [],
      "stateMutability": "nonpayable",
      "type": "function"
    },
    {
      "inputs": [
        {
          "internalType": "address",
          "name": "_caller",
          "type": "address"
        }
      ],
      "name": "whitelistCaller",
      "outputs": [],
      "stateMutability": "nonpayable",
      "type": "function"
    },
    {
      "inputs": [
        {
          "internalType": "address",
          "name": "token",
          "type": "address"
        }
      ],
      "name": "withdraw",
      "outputs": [],
      "stateMutability": "nonpayable",
      "type": "function"
    },
    {
      "inputs": [],
      "name": "withdrawEth",
      "outputs": [],
      "stateMutability": "nonpayable",
      "type": "function"
    },
    {
      "stateMutability": "payable",
      "type": "receive"
    }
  ],
  "address": "0xB0983BE3bd4c4CDC264095754A338e223e5d42B8",
  "args": [],
  "solcInputHash": "0x103b261fc33cdd3392535c7b4e9160f52bb2a2d3e5c498e61105e44222ca6c52",
  "bytecode": "0x608060405234801561001057600080fd5b50600080546001600160a01b03191633178082556001600160a01b03168152600160208190526040909120805460ff19169091179055612179806100556000396000f3fe6080604052600436106100e15760003560e01c806351cff8d91161007f5780639bf710d4116100595780639bf710d41461022e578063a0ef91df14610243578063aab3f86814610258578063f53cc4b314610285576100e8565b806351cff8d9146101cc5780637bbf4a3f146101ec5780638da5cb5b14610219576100e8565b806310d1e85c116100bb57806310d1e85c146101555780632a4c0a1a146101755780634883400d1461018a5780634ab45d33146101b7576100e8565b8063040141e5146100ea578063052d33841461011557806306bd1ba014610135576100e8565b366100e857005b005b3480156100f657600080fd5b506100ff6102a5565b60405161010c9190611d6c565b60405180910390f35b34801561012157600080fd5b506100e861013036600461197e565b6102bd565b34801561014157600080fd5b506100e861015036600461197e565b610317565b34801561016157600080fd5b506100e8610170366004611abe565b610362565b34801561018157600080fd5b506100ff610b4e565b34801561019657600080fd5b506101aa6101a5366004611a3e565b610b66565b60405161010c9190611e23565b3480156101c357600080fd5b506100ff610c1f565b3480156101d857600080fd5b506100e86101e736600461197e565b610c37565b3480156101f857600080fd5b5061020c61020736600461197e565b610d68565b60405161010c9190611e66565b34801561022557600080fd5b506100ff610d7d565b34801561023a57600080fd5b506100ff610d8c565b34801561024f57600080fd5b506100e8610da4565b34801561026457600080fd5b506102786102733660046119ee565b610e06565b60405161010c9190612056565b34801561029157600080fd5b506102786102a03660046119b6565b611230565b73c02aaa39b223fe8d0a0e5c4f27ead9083c756cc281565b6000546001600160a01b031633146102f05760405162461bcd60e51b81526004016102e790611fe2565b60405180910390fd5b6001600160a01b03166000908152600160208190526040909120805460ff19169091179055565b6000546001600160a01b031633146103415760405162461bcd60e51b81526004016102e790611fe2565b6001600160a01b03166000908152600160205260409020805460ff19169055565b306001600160a01b0385161461038a5760405162461bcd60e51b81526004016102e790611f89565b610392611949565b818060200190516103a69190810190611c28565b80519091506001600160a01b0316734ddc2d193948926d02f9b1fe9e1daa0718270ed514156104b2576060810151604051632e1a7d4d60e01b815273c02aaa39b223fe8d0a0e5c4f27ead9083c756cc291632e1a7d4d9161040a9190600401612056565b600060405180830381600087803b15801561042457600080fd5b505af1158015610438573d6000803e3d6000fd5b5050505080600001516001600160a01b031663aae40a2a8260600151836040015184602001516040518463ffffffff1660e01b815260040161047b929190611d99565b6000604051808303818588803b15801561049457600080fd5b505af11580156104a8573d6000803e3d6000fd5b505050505061080a565b806060015181600001516001600160a01b0316636f307dc36040518163ffffffff1660e01b8152600401602060405180830381600087803b1580156104f657600080fd5b505af115801561050a573d6000803e3d6000fd5b505050506040513d601f19601f8201168201806040525061052e919081019061199a565b6001600160a01b03166370a08231306040518263ffffffff1660e01b81526004016105599190611d6c565b60206040518083038186803b15801561057157600080fd5b505afa158015610585573d6000803e3d6000fd5b505050506040513d601f19601f820116820180604052506105a99190810190611cfa565b10156105c75760405162461bcd60e51b81526004016102e790611fc0565b600081600001516001600160a01b0316636f307dc36040518163ffffffff1660e01b8152600401602060405180830381600087803b15801561060857600080fd5b505af115801561061c573d6000803e3d6000fd5b505050506040513d601f19601f82011682018060405250610640919081019061199a565b825160405163095ea7b360e01b81529192506001600160a01b0383169163095ea7b39161067291600090600401611d80565b600060405180830381600087803b15801561068c57600080fd5b505af11580156106a0573d6000803e3d6000fd5b50508351606085015160405163095ea7b360e01b81526001600160a01b038616945063095ea7b393506106d7929190600401611d80565b600060405180830381600087803b1580156106f157600080fd5b505af1158015610705573d6000803e3d6000fd5b50508351604080860151606087015160208801519251637af1e23160e11b8152600096506001600160a01b03909416945063f5e3c462936107499390600401611db3565b602060405180830381600087803b15801561076357600080fd5b505af1158015610777573d6000803e3d6000fd5b505050506040513d601f19601f8201168201806040525061079b9190810190611cfa565b9050806000146107e86040518060400160405280601c81526020017f6c6971756964617465206661696c206572633230202d206572726320000000008152506107e3846112e0565b6113a3565b906108065760405162461bcd60e51b81526004016102e79190611e71565b5050505b60208101516040516370a0823160e01b81526000916001600160a01b0316906370a082319061083d903090600401611d6c565b60206040518083038186803b15801561085557600080fd5b505afa158015610869573d6000803e3d6000fd5b505050506040513d601f19601f8201168201806040525061088d9190810190611cfa565b9050600082602001516001600160a01b031663db006a75836040518263ffffffff1660e01b81526004016108c19190612056565b602060405180830381600087803b1580156108db57600080fd5b505af11580156108ef573d6000803e3d6000fd5b505050506040513d601f19601f820116820180604052506109139190810190611cfa565b9050806000146109516040518060400160405280601381526020017203932b2b232b6903330b4b610169032b939319606d1b8152506107e3846112e0565b9061096f5760405162461bcd60e51b81526004016102e79190611e71565b5060208301516000906001600160a01b0316734ddc2d193948926d02f9b1fe9e1daa0718270ed51415610a1f5773c02aaa39b223fe8d0a0e5c4f27ead9083c756cc263d0e30db06109bf306113cf565b6040518263ffffffff1660e01b81526004016000604051808303818588803b1580156109ea57600080fd5b505af11580156109fe573d6000803e3d6000fd5b505050505073c02aaa39b223fe8d0a0e5c4f27ead9083c756cc29050610a99565b83602001516001600160a01b0316636f307dc36040518163ffffffff1660e01b8152600401602060405180830381600087803b158015610a5e57600080fd5b505af1158015610a72573d6000803e3d6000fd5b505050506040513d601f19601f82011682018060405250610a96919081019061199a565b90505b608084015160a085015160405163a9059cbb60e01b81526000926001600160a01b0385169263a9059cbb92610ad2929190600401611d80565b602060405180830381600087803b158015610aec57600080fd5b505af1158015610b00573d6000803e3d6000fd5b505050506040513d601f19601f82011682018060405250610b249190810190611c08565b905080610b435760405162461bcd60e51b81526004016102e790611f5a565b505050505050505050565b736b175474e89094c44da98b954eedeac495271d0f81565b6000546060906001600160a01b03163314610b935760405162461bcd60e51b81526004016102e790611fe2565b604051631853304760e31b81526001600160a01b0385169063c299823890610bc19086908690600401611dd6565b600060405180830381600087803b158015610bdb57600080fd5b505af1158015610bef573d6000803e3d6000fd5b505050506040513d6000823e601f3d908101601f19168201604052610c179190810190611b70565b949350505050565b734ddc2d193948926d02f9b1fe9e1daa0718270ed581565b6000546001600160a01b03163314610c615760405162461bcd60e51b81526004016102e790611fe2565b6040516370a0823160e01b81526000906001600160a01b038316906370a0823190610c90903090600401611d6c565b60206040518083038186803b158015610ca857600080fd5b505afa158015610cbc573d6000803e3d6000fd5b505050506040513d601f19601f82011682018060405250610ce09190810190611cfa565b60405163a9059cbb60e01b81529091506001600160a01b0383169063a9059cbb90610d119033908590600401611d80565b602060405180830381600087803b158015610d2b57600080fd5b505af1158015610d3f573d6000803e3d6000fd5b505050506040513d601f19601f82011682018060405250610d639190810190611c08565b505050565b60016020526000908152604090205460ff1681565b6000546001600160a01b031681565b735c69bee701ef814a2b6a3edd4b1652cb9cc5aa6f81565b6000546001600160a01b03163314610dce5760405162461bcd60e51b81526004016102e790611fe2565b336108fc610ddb306113cf565b6040518115909202916000818181858888f19350505050158015610e03573d6000803e3d6000fd5b50565b3360009081526001602052604081205460ff16610e355760405162461bcd60e51b81526004016102e790611f36565b826001600160a01b0316635fe3b5676040518163ffffffff1660e01b8152600401602060405180830381600087803b158015610e7057600080fd5b505af1158015610e84573d6000803e3d6000fd5b505050506040513d601f19601f82011682018060405250610ea8919081019061199a565b6001600160a01b0316846001600160a01b0316635fe3b5676040518163ffffffff1660e01b8152600401602060405180830381600087803b158015610eec57600080fd5b505af1158015610f00573d6000803e3d6000fd5b505050506040513d601f19601f82011682018060405250610f24919081019061199a565b6001600160a01b031614610f4a5760405162461bcd60e51b81526004016102e790611e84565b60008211610f6a5760405162461bcd60e51b81526004016102e790611ec7565b600080610f7786866113dc565b915091506000610f878383611553565b90506000806000610f9a84878a886116d7565b925092509250610fa8611949565b6040518060c001604052808c6001600160a01b031681526020018b6001600160a01b031681526020018d6001600160a01b031681526020018a8152602001866001600160a01b031681526020018381525090506000866001600160a01b03166370a08231306040518263ffffffff1660e01b81526004016110299190611d6c565b60206040518083038186803b15801561104157600080fd5b505afa158015611055573d6000803e3d6000fd5b505050506040513d601f19601f820116820180604052506110799190810190611cfa565b9050856001600160a01b031663022c0d9f8686308660405160200161109e9190612005565b6040516020818303038152906040526040518563ffffffff1660e01b81526004016110cc949392919061205f565b600060405180830381600087803b1580156110e657600080fd5b505af11580156110fa573d6000803e3d6000fd5b50506040516370a0823160e01b8152600092506001600160a01b038a1691506370a082319061112d903090600401611d6c565b60206040518083038186803b15801561114557600080fd5b505afa158015611159573d6000803e3d6000fd5b505050506040513d601f19601f8201168201806040525061117d9190810190611cfa565b905081811161119e5760405162461bcd60e51b81526004016102e790611f18565b60405163a9059cbb60e01b81526001600160a01b0389169063a9059cbb906111cc9033908590600401611d80565b602060405180830381600087803b1580156111e657600080fd5b505af11580156111fa573d6000803e3d6000fd5b505050506040513d601f19601f8201168201806040525061121e9190810190611c08565b50039c9b505050505050505050505050565b600080546001600160a01b0316331461125b5760405162461bcd60e51b81526004016102e790611fe2565b604051630ede4edd60e41b81526001600160a01b0384169063ede4edd090611287908590600401611d6c565b602060405180830381600087803b1580156112a157600080fd5b505af11580156112b5573d6000803e3d6000fd5b505050506040513d601f19601f820116820180604052506112d99190810190611cfa565b9392505050565b60608161130557506040805180820190915260018152600360fc1b602082015261139e565b8160005b811561131d57600101600a82049150611309565b6060816040519080825280601f01601f19166020018201604052801561134a576020820181803883390190505b50905060001982015b851561139857600a860660300160f81b8282806001900393508151811061137657fe5b60200101906001600160f81b031916908160001a905350600a86049550611353565b50925050505b919050565b606082826040516020016113b8929190611d3e565b604051602081830303815290604052905092915050565b6001600160a01b03163190565b6000806001600160a01b038416734ddc2d193948926d02f9b1fe9e1daa0718270ed514156114205773c02aaa39b223fe8d0a0e5c4f27ead9083c756cc29150611496565b836001600160a01b0316636f307dc36040518163ffffffff1660e01b8152600401602060405180830381600087803b15801561145b57600080fd5b505af115801561146f573d6000803e3d6000fd5b505050506040513d601f19601f82011682018060405250611493919081019061199a565b91505b6001600160a01b038316734ddc2d193948926d02f9b1fe9e1daa0718270ed514156114d6575073c02aaa39b223fe8d0a0e5c4f27ead9083c756cc261154c565b826001600160a01b0316636f307dc36040518163ffffffff1660e01b8152600401602060405180830381600087803b15801561151157600080fd5b505af1158015611525573d6000803e3d6000fd5b505050506040513d601f19601f82011682018060405250611549919081019061199a565b90505b9250929050565b6000816001600160a01b0316836001600160a01b031614156115c8576001600160a01b03831673c02aaa39b223fe8d0a0e5c4f27ead9083c756cc214156115b057736b175474e89094c44da98b954eedeac495271d0f91506115c8565b73c02aaa39b223fe8d0a0e5c4f27ead9083c756cc291505b60405163e6a4390560e01b8152600090735c69bee701ef814a2b6a3edd4b1652cb9cc5aa6f9063e6a43905906116049087908790600401611d99565b60206040518083038186803b15801561161c57600080fd5b505afa158015611630573d6000803e3d6000fd5b505050506040513d601f19601f82011682018060405250611654919081019061199a565b90506001600160a01b03811661167c5760405162461bcd60e51b81526004016102e790611ef7565b806001600160a01b031663fff6cae96040518163ffffffff1660e01b8152600401600060405180830381600087803b1580156116b757600080fd5b505af11580156116cb573d6000803e3d6000fd5b50929695505050505050565b600080600080876001600160a01b0316630dfe16816040518163ffffffff1660e01b815260040160206040518083038186803b15801561171657600080fd5b505afa15801561172a573d6000803e3d6000fd5b505050506040513d601f19601f8201168201806040525061174e919081019061199a565b90506000886001600160a01b031663d21220a76040518163ffffffff1660e01b815260040160206040518083038186803b15801561178b57600080fd5b505afa15801561179f573d6000803e3d6000fd5b505050506040513d601f19601f820116820180604052506117c3919081019061199a565b9050816001600160a01b0316886001600160a01b0316146117e55760006117e7565b865b9450806001600160a01b0316886001600160a01b03161461180957600061180b565b865b935060008060008b6001600160a01b0316630902f1ac6040518163ffffffff1660e01b815260040160606040518083038186803b15801561184b57600080fd5b505afa15801561185f573d6000803e3d6000fd5b505050506040513d601f19601f820116820180604052506118839190810190611ca6565b63ffffffff1692506001600160701b031692506001600160701b031692506000856001600160a01b03168c6001600160a01b0316146118c257826118c4565b835b90506000866001600160a01b03168d6001600160a01b0316146118e757846118e9565b835b90508a6001600160a01b03168d6001600160a01b03161415611918576103e56103e88d02046001019750611938565b6103e8818d02026103e58d84030280828161192f57fe5b04600101995050505b505050505050509450945094915050565b6040805160c081018252600080825260208201819052918101829052606081018290526080810182905260a081019190915290565b60006020828403121561198f578081fd5b81356112d981612119565b6000602082840312156119ab578081fd5b81516112d981612119565b600080604083850312156119c8578081fd5b82356119d381612119565b915060208301356119e381612119565b809150509250929050565b60008060008060808587031215611a03578182fd5b8435611a0e81612119565b93506020850135611a1e81612119565b92506040850135611a2e81612119565b9396929550929360600135925050565b600080600060408486031215611a52578283fd5b8335611a5d81612119565b9250602084013567ffffffffffffffff80821115611a79578384fd5b81860187601f820112611a8a578485fd5b8035925081831115611a9a578485fd5b8760208085028301011115611aad578485fd5b949760209095019650909450505050565b60008060008060808587031215611ad3578384fd5b8435611ade81612119565b93506020850135925060408501359150606085013567ffffffffffffffff80821115611b08578283fd5b81870188601f820112611b19578384fd5b8035925081831115611b29578384fd5b611b3c601f8401601f1916602001612096565b9150828252886020848301011115611b52578384fd5b611b638360208401602084016120dd565b5094979396509194505050565b60006020808385031215611b82578182fd5b825167ffffffffffffffff811115611b98578283fd5b80840185601f820112611ba9578384fd5b80519150611bbe611bb9836120bd565b612096565b8281528381019082850185850284018601891015611bda578687fd5b8693505b84841015611bfc578051835260019390930192918501918501611bde565b50979650505050505050565b600060208284031215611c19578081fd5b815180151581146112d9578182fd5b600060c08284031215611c39578081fd5b611c4360c0612096565b8251611c4e81612119565b81526020830151611c5e81612119565b60208201526040830151611c7181612119565b6040820152606083810151908201526080830151611c8e81612119565b608082015260a0928301519281019290925250919050565b600080600060608486031215611cba578283fd5b8351611cc58161212e565b6020850151909350611cd68161212e565b604085015190925063ffffffff81168114611cef578182fd5b809150509250925092565b600060208284031215611d0b578081fd5b5051919050565b60008151808452611d2a8160208601602086016120e9565b601f01601f19169290920160200192915050565b60008351611d508184602088016120e9565b8351908301611d638282602088016120e9565b01949350505050565b6001600160a01b0391909116815260200190565b6001600160a01b03929092168252602082015260400190565b6001600160a01b0392831681529116602082015260400190565b6001600160a01b0393841681526020810192909252909116604082015260600190565b6020808252810182905260008360408301825b85811015611e19578235611dfc81612119565b6001600160a01b0316825260209283019290910190600101611de9565b5095945050505050565b602080825282518282018190526000918401906040840190835b81811015611e5b578351835260209384019390920191600101611e3d565b509095945050505050565b901515815260200190565b6000602082526112d96020830184611d12565b60208082526023908201527f63546f6b656e73206861766520646966666572656e7420636f6d7074726f6c6c60408201526265727360e81b606082015260800190565b6020808252601690820152751e995c9bc81c995c185e509bdc9c9bddd05b5bdd5b9d60521b604082015260600190565b6020808252600790820152663737903830b4b960c91b604082015260600190565b6020808252600490820152636e6f706560e01b604082015260600190565b6020808252600a90820152693737ba1031b0b63632b960b11b604082015260600190565b602080825260159082015274195c98cc8c081d1c985b9cd9995c8819985a5b1959605a1b604082015260600190565b6020808252601d908201527f73656e646572206e6565647320746f206265206c697175696461746f72000000604082015260600190565b602080825260089082015267062616420737761760c41b604082015260600190565b6020808252600990820152683737ba1037bbb732b960b91b604082015260600190565b81516001600160a01b039081168252602080840151821690830152604080840151821690830152606080840151908301526080808401519091169082015260a0918201519181019190915260c00190565b90815260200190565b600085825284602083015260018060a01b03841660408301526080606083015261208c6080830184611d12565b9695505050505050565b60405181810167ffffffffffffffff811182821017156120b557600080fd5b604052919050565b600067ffffffffffffffff8211156120d3578081fd5b5060209081020190565b82818337506000910152565b60005b838110156121045781810151838201526020016120ec565b83811115612113576000848401525b50505050565b6001600160a01b0381168114610e0357600080fd5b6001600160701b0381168114610e0357600080fdfea2646970667358221220f59e26e95d1f3cec747e2c4dbd6ffa33a3279c8fbf3d053354b377fa38b918ad64736f6c63430006000033",
  "devdoc": {
    "methods": {}
  },
  "userdoc": {
    "methods": {}
  },
  "storageLayout": {
    "storage": [
      {
        "astId": 282,
        "contract": "contracts/CompoundLiquidator.sol:CompoundLiquidator",
        "label": "owner",
        "offset": 0,
        "slot": "0",
        "type": "t_address"
      },
      {
        "astId": 286,
        "contract": "contracts/CompoundLiquidator.sol:CompoundLiquidator",
        "label": "callers",
        "offset": 0,
        "slot": "1",
        "type": "t_mapping(t_address,t_bool)"
      }
    ],
    "types": {
      "t_address": {
        "encoding": "inplace",
        "label": "address",
        "numberOfBytes": "20"
      },
      "t_bool": {
        "encoding": "inplace",
        "label": "bool",
        "numberOfBytes": "1"
      },
      "t_mapping(t_address,t_bool)": {
        "encoding": "mapping",
        "key": "t_address",
        "label": "mapping(address => bool)",
        "numberOfBytes": "32",
        "value": "t_bool"
      }
    }
  },
  "gasEstimates": {
    "creation": {
      "codeDepositCost": "1713800",
      "executionCost": "43551",
      "totalCost": "1757351"
    },
    "external": {
      "": "175",
      "CETH_ADDRESS()": "341",
      "DAI_ADDRESS()": "297",
      "UNISWAP_FACTORY_ADDRESS()": "274",
      "WETH_ADDRESS()": "276",
      "blacklistCaller(address)": "22106",
      "callers(address)": "1303",
      "enterMarkets(address,address[])": "infinite",
      "exitMarket(address,address)": "infinite",
      "liquidate(address,address,address,uint256)": "infinite",
      "owner()": "1137",
      "uniswapV2Call(address,uint256,uint256,bytes)": "infinite",
      "whitelistCaller(address)": "22102",
      "withdraw(address)": "infinite",
      "withdrawEth()": "infinite"
    },
    "internal": {
      "getAmounts(address,address,uint256,address)": "infinite",
      "getUnderlyings(address,address)": "infinite",
      "getUniswapPair(address,address)": "infinite"
    }
  }
}