{
  "abi": [
    {
      "inputs": [
        {
          "internalType": "address",
          "name": "view_",
          "type": "address"
        },
        {
          "internalType": "address",
          "name": "liquidator_",
          "type": "address"
        }
      ],
      "stateMutability": "nonpayable",
      "type": "constructor"
    },
    {
      "inputs": [
        {
          "internalType": "address",
          "name": "borrowAccount",
          "type": "address"
        },
        {
          "internalType": "address",
          "name": "cTokenBorrowed",
          "type": "address"
        },
        {
          "internalType": "address",
          "name": "cTokenCollateral",
          "type": "address"
        },
        {
          "internalType": "uint256",
          "name": "repayBorrowAmount",
          "type": "uint256"
        },
        {
          "internalType": "bytes[]",
          "name": "messages",
          "type": "bytes[]"
        },
        {
          "internalType": "bytes[]",
          "name": "signatures",
          "type": "bytes[]"
        },
        {
          "internalType": "string[]",
          "name": "symbols",
          "type": "string[]"
        }
      ],
      "name": "liquidate",
      "outputs": [
        {
          "internalType": "uint256",
          "name": "",
          "type": "uint256"
        }
      ],
      "stateMutability": "nonpayable",
      "type": "function"
    },
    {
      "inputs": [],
      "name": "liquidator",
      "outputs": [
        {
          "internalType": "address",
          "name": "",
          "type": "address"
        }
      ],
      "stateMutability": "view",
      "type": "function"
    },
    {
      "inputs": [],
      "name": "owner",
      "outputs": [
        {
          "internalType": "address",
          "name": "",
          "type": "address"
        }
      ],
      "stateMutability": "view",
      "type": "function"
    },
    {
      "inputs": [
        {
          "internalType": "address",
          "name": "liquidator_",
          "type": "address"
        }
      ],
      "name": "setLiquidator",
      "outputs": [],
      "stateMutability": "nonpayable",
      "type": "function"
    },
    {
      "inputs": [
        {
          "internalType": "address",
          "name": "view_",
          "type": "address"
        }
      ],
      "name": "setView",
      "outputs": [],
      "stateMutability": "nonpayable",
      "type": "function"
    },
    {
      "inputs": [],
      "name": "uniswapAnchoredView",
      "outputs": [
        {
          "internalType": "address",
          "name": "",
          "type": "address"
        }
      ],
      "stateMutability": "view",
      "type": "function"
    }
  ],
  "address": "0x260fb5997d65fFaB7BC7c1a55988F775AfEF8b10",
  "args": [
    "0x9B8Eb8b3d6e2e0Db36F41455185FEF7049a35CaE",
    "0xB0983BE3bd4c4CDC264095754A338e223e5d42B8"
  ],
  "solcInputHash": "0x103b261fc33cdd3392535c7b4e9160f52bb2a2d3e5c498e61105e44222ca6c52",
  "bytecode": "0x608060405234801561001057600080fd5b5060405161075538038061075583398101604081905261002f9161006b565b600080546001600160a01b03199081163317909155600180546001600160a01b03948516908316179055600280549290931691161790556100bc565b6000806040838503121561007d578182fd5b8251610088816100a4565b6020840151909250610099816100a4565b809150509250929050565b6001600160a01b03811681146100b957600080fd5b50565b61068a806100cb6000396000f3fe608060405234801561001057600080fd5b50600436106100625760003560e01c806301c76f81146100675780630af457041461007c57806321a8b1e01461009a5780634046ebae146100ba5780638550fc42146100c25780638da5cb5b146100d5575b600080fd5b61007a61007536600461033c565b6100dd565b005b610084610132565b60405161009191906104d4565b60405180910390f35b6100ad6100a836600461035e565b610141565b6040516100919190610606565b61008461026c565b61007a6100d036600461033c565b61027b565b6100846102c7565b6000546001600160a01b031633146101105760405162461bcd60e51b8152600401610107906105e3565b60405180910390fd5b600280546001600160a01b0319166001600160a01b0392909216919091179055565b6001546001600160a01b031681565b600085156101d5578584146101685760405162461bcd60e51b8152600401610107906105a0565b600154604051633b307a6160e21b81526001600160a01b039091169063ecc1e984906101a2908a908a908a908a908a908a90600401610512565b600060405180830381600087803b1580156101bc57600080fd5b505af11580156101d0573d6000803e3d6000fd5b505050505b6002546040516315567f0d60e31b81526001600160a01b039091169063aab3f8689061020b908e908e908e908e906004016104e8565b602060405180830381600087803b15801561022557600080fd5b505af1158015610239573d6000803e3d6000fd5b505050506040513d601f19601f8201168201806040525061025d9190810190610434565b9b9a5050505050505050505050565b6002546001600160a01b031681565b6000546001600160a01b031633146102a55760405162461bcd60e51b8152600401610107906105e3565b600180546001600160a01b0319166001600160a01b0392909216919091179055565b6000546001600160a01b031681565b80356001600160a01b03811681146102ed57600080fd5b92915050565b60008083601f840112610304578182fd5b50813567ffffffffffffffff81111561031b578182fd5b602083019150836020808302850101111561033557600080fd5b9250929050565b60006020828403121561034d578081fd5b61035783836102d6565b9392505050565b60008060008060008060008060008060e08b8d03121561037c578586fd5b6103868c8c6102d6565b99506103958c60208d016102d6565b98506103a48c60408d016102d6565b975060608b0135965060808b013567ffffffffffffffff808211156103c7578788fd5b6103d38e838f016102f3565b909850965060a08d01359150808211156103eb578586fd5b6103f78e838f016102f3565b909650945060c08d013591508082111561040f578384fd5b5061041c8d828e016102f3565b8194508093505050509295989b9194979a5092959850565b600060208284031215610445578081fd5b5051919050565b60008284526020840180819550602085028101915083835b8681101561049e57828403885261047b828761060f565b6104868682846104aa565b60209a8b019a90965093909301925050600101610464565b50919695505050505050565b60008284528282602086013780602084860101526020601f19601f85011685010190509392505050565b6001600160a01b0391909116815260200190565b6001600160a01b039485168152928416602084015292166040820152606081019190915260800190565b60006060825261052660608301888a61044c565b60208382038185015261053a82888a61044c565b848103604086015285815281810192508186028101820187855b8881101561058e57838303601f1901865261056f828b61060f565b61057a8582846104aa565b978701979450505090840190600101610554565b50909c9b505050505050505050505050565b60208082526023908201527f6d6573736167657320616e64207369676e617475726573206d75737420626520604082015262313a3160e81b606082015260800190565b6020808252600990820152683737ba1037bbb732b960b91b604082015260600190565b90815260200190565b6000808335601e19843603018112610625578283fd5b830160208101925035905067ffffffffffffffff81111561064557600080fd5b80360383131561033557600080fdfea26469706673582212208bd2d99e8f1851fa76945b57b0f590c7e6e24683702c014561f82d278876fbc564736f6c63430006000033",
  "devdoc": {
    "methods": {}
  },
  "userdoc": {
    "methods": {}
  },
  "storageLayout": {
    "storage": [
      {
        "astId": 1117,
        "contract": "contracts/CompoundLiquidatorWrapper.sol:CompoundLiquidatorWrapper",
        "label": "owner",
        "offset": 0,
        "slot": "0",
        "type": "t_address"
      },
      {
        "astId": 1119,
        "contract": "contracts/CompoundLiquidatorWrapper.sol:CompoundLiquidatorWrapper",
        "label": "uniswapAnchoredView",
        "offset": 0,
        "slot": "1",
        "type": "t_address"
      },
      {
        "astId": 1121,
        "contract": "contracts/CompoundLiquidatorWrapper.sol:CompoundLiquidatorWrapper",
        "label": "liquidator",
        "offset": 0,
        "slot": "2",
        "type": "t_address"
      }
    ],
    "types": {
      "t_address": {
        "encoding": "inplace",
        "label": "address",
        "numberOfBytes": "20"
      }
    }
  },
  "gasEstimates": {
    "creation": {
      "codeDepositCost": "334800",
      "executionCost": "infinite",
      "totalCost": "infinite"
    },
    "external": {
      "liquidate(address,address,address,uint256,bytes[],bytes[],string[])": "infinite",
      "liquidator()": "1114",
      "owner()": "1158",
      "setLiquidator(address)": "21994",
      "setView(address)": "22082",
      "uniswapAnchoredView()": "1070"
    }
  }
}