{
  "abi": [
    {
      "inputs": [],
      "stateMutability": "nonpayable",
      "type": "constructor"
    },
    {
      "stateMutability": "payable",
      "type": "fallback"
    },
    {
      "inputs": [],
      "name": "CETH_ADDRESS",
      "outputs": [
        {
          "internalType": "address",
          "name": "",
          "type": "address"
        }
      ],
      "stateMutability": "view",
      "type": "function"
    },
    {
      "inputs": [],
      "name": "DAI_ADDRESS",
      "outputs": [
        {
          "internalType": "address",
          "name": "",
          "type": "address"
        }
      ],
      "stateMutability": "view",
      "type": "function"
    },
    {
      "inputs": [],
      "name": "UNISWAP_FACTORY_ADDRESS",
      "outputs": [
        {
          "internalType": "address",
          "name": "",
          "type": "address"
        }
      ],
      "stateMutability": "view",
      "type": "function"
    },
    {
      "inputs": [],
      "name": "WETH_ADDRESS",
      "outputs": [
        {
          "internalType": "address",
          "name": "",
          "type": "address"
        }
      ],
      "stateMutability": "view",
      "type": "function"
    },
    {
      "inputs": [
        {
          "internalType": "address",
          "name": "comptroller",
          "type": "address"
        },
        {
          "internalType": "address[]",
          "name": "cTokens",
          "type": "address[]"
        }
      ],
      "name": "enterMarkets",
      "outputs": [
        {
          "internalType": "uint256[]",
          "name": "",
          "type": "uint256[]"
        }
      ],
      "stateMutability": "nonpayable",
      "type": "function"
    },
    {
      "inputs": [
        {
          "internalType": "address",
          "name": "comptroller",
          "type": "address"
        },
        {
          "internalType": "address",
          "name": "cToken",
          "type": "address"
        }
      ],
      "name": "exitMarket",
      "outputs": [
        {
          "internalType": "uint256",
          "name": "",
          "type": "uint256"
        }
      ],
      "stateMutability": "nonpayable",
      "type": "function"
    },
    {
      "inputs": [
        {
          "internalType": "address",
          "name": "borrowAccount",
          "type": "address"
        },
        {
          "internalType": "address",
          "name": "cTokenBorrowed",
          "type": "address"
        },
        {
          "internalType": "address",
          "name": "cTokenCollateral",
          "type": "address"
        },
        {
          "internalType": "uint256",
          "name": "repayBorrowAmount",
          "type": "uint256"
        }
      ],
      "name": "liquidate",
      "outputs": [
        {
          "internalType": "uint256",
          "name": "",
          "type": "uint256"
        }
      ],
      "stateMutability": "nonpayable",
      "type": "function"
    },
    {
      "inputs": [],
      "name": "owner",
      "outputs": [
        {
          "internalType": "address",
          "name": "",
          "type": "address"
        }
      ],
      "stateMutability": "view",
      "type": "function"
    },
    {
      "inputs": [
        {
          "internalType": "address",
          "name": "sender",
          "type": "address"
        },
        {
          "internalType": "uint256",
          "name": "amount0",
          "type": "uint256"
        },
        {
          "internalType": "uint256",
          "name": "amount1",
          "type": "uint256"
        },
        {
          "internalType": "bytes",
          "name": "_data",
          "type": "bytes"
        }
      ],
      "name": "uniswapV2Call",
      "outputs": [],
      "stateMutability": "nonpayable",
      "type": "function"
    },
    {
      "inputs": [
        {
          "internalType": "address",
          "name": "token",
          "type": "address"
        }
      ],
      "name": "withdraw",
      "outputs": [],
      "stateMutability": "nonpayable",
      "type": "function"
    },
    {
      "inputs": [],
      "name": "withdrawEth",
      "outputs": [],
      "stateMutability": "nonpayable",
      "type": "function"
    },
    {
      "stateMutability": "payable",
      "type": "receive"
    }
  ],
  "address": "0x843A85C964D7144c7B6D2F11baCE62bb4D3233c2",
  "args": [],
  "solcInputHash": "0xfd56ddd881f1936a8d1767cf513cba7884fe8b72fc3b44592ff0bd39290f9b01",
  "bytecode": "0x608060405234801561001057600080fd5b50600080546001600160a01b03191633179055611f50806100326000396000f3fe6080604052600436106100a05760003560e01c806351cff8d91161006457806351cff8d91461014b5780638da5cb5b1461016b5780639bf710d414610180578063a0ef91df14610195578063aab3f868146101aa578063f53cc4b3146101d7576100a7565b8063040141e5146100a957806310d1e85c146100d45780632a4c0a1a146100f45780634883400d146101095780634ab45d3314610136576100a7565b366100a757005b005b3480156100b557600080fd5b506100be6101f7565b6040516100cb9190611b9e565b60405180910390f35b3480156100e057600080fd5b506100a76100ef3660046118f0565b61020f565b34801561010057600080fd5b506100be61099e565b34801561011557600080fd5b50610129610124366004611870565b6109b6565b6040516100cb9190611c55565b34801561014257600080fd5b506100be610a6f565b34801561015757600080fd5b506100a76101663660046117b0565b610a87565b34801561017757600080fd5b506100be610bb8565b34801561018c57600080fd5b506100be610bc7565b3480156101a157600080fd5b506100a7610bdf565b3480156101b657600080fd5b506101ca6101c5366004611820565b610c2f565b6040516100cb9190611e2a565b3480156101e357600080fd5b506101ca6101f23660046117e8565b611062565b73c02aaa39b223fe8d0a0e5c4f27ead9083c756cc281565b306001600160a01b038516146102405760405162461bcd60e51b815260040161023790611d5d565b60405180910390fd5b61024861177b565b8180602001905161025c9190810190611a5a565b80519091506001600160a01b0316734ddc2d193948926d02f9b1fe9e1daa0718270ed51415610368576060810151604051632e1a7d4d60e01b815273c02aaa39b223fe8d0a0e5c4f27ead9083c756cc291632e1a7d4d916102c09190600401611e2a565b600060405180830381600087803b1580156102da57600080fd5b505af11580156102ee573d6000803e3d6000fd5b5050505080600001516001600160a01b031663aae40a2a8260600151836040015184602001516040518463ffffffff1660e01b8152600401610331929190611bcb565b6000604051808303818588803b15801561034a57600080fd5b505af115801561035e573d6000803e3d6000fd5b505050505061067e565b806060015181600001516001600160a01b0316636f307dc36040518163ffffffff1660e01b8152600401602060405180830381600087803b1580156103ac57600080fd5b505af11580156103c0573d6000803e3d6000fd5b505050506040513d601f19601f820116820180604052506103e491908101906117cc565b6001600160a01b03166370a08231306040518263ffffffff1660e01b815260040161040f9190611b9e565b60206040518083038186803b15801561042757600080fd5b505afa15801561043b573d6000803e3d6000fd5b505050506040513d601f19601f8201168201806040525061045f9190810190611b2c565b101561047d5760405162461bcd60e51b815260040161023790611d94565b80600001516001600160a01b0316636f307dc36040518163ffffffff1660e01b8152600401602060405180830381600087803b1580156104bc57600080fd5b505af11580156104d0573d6000803e3d6000fd5b505050506040513d601f19601f820116820180604052506104f491908101906117cc565b8151606083015160405163095ea7b360e01b81526001600160a01b03939093169263095ea7b392610529929091600401611bb2565b602060405180830381600087803b15801561054357600080fd5b505af1158015610557573d6000803e3d6000fd5b505050506040513d601f19601f8201168201806040525061057b9190810190611a3a565b50600081600001516001600160a01b031663f5e3c4628360400151846060015185602001516040518463ffffffff1660e01b81526004016105be93929190611be5565b602060405180830381600087803b1580156105d857600080fd5b505af11580156105ec573d6000803e3d6000fd5b505050506040513d601f19601f820116820180604052506106109190810190611b2c565b90508060001461065d6040518060400160405280601c81526020017f6c6971756964617465206661696c206572633230202d2065727263200000000081525061065884611112565b6111d5565b9061067b5760405162461bcd60e51b81526004016102379190611c98565b50505b60208101516040516370a0823160e01b81526000916001600160a01b0316906370a08231906106b1903090600401611b9e565b60206040518083038186803b1580156106c957600080fd5b505afa1580156106dd573d6000803e3d6000fd5b505050506040513d601f19601f820116820180604052506107019190810190611b2c565b9050600082602001516001600160a01b031663db006a75836040518263ffffffff1660e01b81526004016107359190611e2a565b602060405180830381600087803b15801561074f57600080fd5b505af1158015610763573d6000803e3d6000fd5b505050506040513d601f19601f820116820180604052506107879190810190611b2c565b9050806000146107c56040518060400160405280601381526020017203932b2b232b6903330b4b610169032b939319606d1b81525061065884611112565b906107e35760405162461bcd60e51b81526004016102379190611c98565b5060208301516000906001600160a01b0316734ddc2d193948926d02f9b1fe9e1daa0718270ed514156108935773c02aaa39b223fe8d0a0e5c4f27ead9083c756cc263d0e30db061083330611201565b6040518263ffffffff1660e01b81526004016000604051808303818588803b15801561085e57600080fd5b505af1158015610872573d6000803e3d6000fd5b505050505073c02aaa39b223fe8d0a0e5c4f27ead9083c756cc2905061090d565b83602001516001600160a01b0316636f307dc36040518163ffffffff1660e01b8152600401602060405180830381600087803b1580156108d257600080fd5b505af11580156108e6573d6000803e3d6000fd5b505050506040513d601f19601f8201168201806040525061090a91908101906117cc565b90505b608084015160a085015160405163a9059cbb60e01b81526001600160a01b0384169263a9059cbb9261094192600401611bb2565b602060405180830381600087803b15801561095b57600080fd5b505af115801561096f573d6000803e3d6000fd5b505050506040513d601f19601f820116820180604052506109939190810190611a3a565b505050505050505050565b736b175474e89094c44da98b954eedeac495271d0f81565b6000546060906001600160a01b031633146109e35760405162461bcd60e51b815260040161023790611db6565b604051631853304760e31b81526001600160a01b0385169063c299823890610a119086908690600401611c08565b600060405180830381600087803b158015610a2b57600080fd5b505af1158015610a3f573d6000803e3d6000fd5b505050506040513d6000823e601f3d908101601f19168201604052610a6791908101906119a2565b949350505050565b734ddc2d193948926d02f9b1fe9e1daa0718270ed581565b6000546001600160a01b03163314610ab15760405162461bcd60e51b815260040161023790611db6565b6040516370a0823160e01b81526000906001600160a01b038316906370a0823190610ae0903090600401611b9e565b60206040518083038186803b158015610af857600080fd5b505afa158015610b0c573d6000803e3d6000fd5b505050506040513d601f19601f82011682018060405250610b309190810190611b2c565b60405163a9059cbb60e01b81529091506001600160a01b0383169063a9059cbb90610b619033908590600401611bb2565b602060405180830381600087803b158015610b7b57600080fd5b505af1158015610b8f573d6000803e3d6000fd5b505050506040513d601f19601f82011682018060405250610bb39190810190611a3a565b505050565b6000546001600160a01b031681565b735c69bee701ef814a2b6a3edd4b1652cb9cc5aa6f81565b6000546001600160a01b03163314610c095760405162461bcd60e51b815260040161023790611db6565b336108fc610c1630611201565b6040518115909202916000818181858888f15050505050565b600080546001600160a01b03163314610c5a5760405162461bcd60e51b815260040161023790611db6565b826001600160a01b0316635fe3b5676040518163ffffffff1660e01b8152600401602060405180830381600087803b158015610c9557600080fd5b505af1158015610ca9573d6000803e3d6000fd5b505050506040513d601f19601f82011682018060405250610ccd91908101906117cc565b6001600160a01b0316846001600160a01b0316635fe3b5676040518163ffffffff1660e01b8152600401602060405180830381600087803b158015610d1157600080fd5b505af1158015610d25573d6000803e3d6000fd5b505050506040513d601f19601f82011682018060405250610d4991908101906117cc565b6001600160a01b031614610d6f5760405162461bcd60e51b815260040161023790611cab565b60008211610d8f5760405162461bcd60e51b815260040161023790611cee565b600080610d9c868661120e565b915091506000610dac8383611385565b90506000836001600160a01b03166370a08231836040518263ffffffff1660e01b8152600401610ddc9190611b9e565b60206040518083038186803b158015610df457600080fd5b505afa158015610e08573d6000803e3d6000fd5b505050506040513d601f19601f82011682018060405250610e2c9190810190611b2c565b905085811015610e3a578095505b6000806000610e4b85888b89611509565b925092509250610e5961177b565b6040518060c001604052808d6001600160a01b031681526020018c6001600160a01b031681526020018e6001600160a01b031681526020018b8152602001876001600160a01b031681526020018381525090506000876001600160a01b03166370a08231306040518263ffffffff1660e01b8152600401610eda9190611b9e565b60206040518083038186803b158015610ef257600080fd5b505afa158015610f06573d6000803e3d6000fd5b505050506040513d601f19601f82011682018060405250610f2a9190810190611b2c565b9050866001600160a01b031663022c0d9f86863086604051602001610f4f9190611dd9565b6040516020818303038152906040526040518563ffffffff1660e01b8152600401610f7d9493929190611e33565b600060405180830381600087803b158015610f9757600080fd5b505af1158015610fab573d6000803e3d6000fd5b50506040516370a0823160e01b8152600092506001600160a01b038b1691506370a0823190610fde903090600401611b9e565b60206040518083038186803b158015610ff657600080fd5b505afa15801561100a573d6000803e3d6000fd5b505050506040513d601f19601f8201168201806040525061102e9190810190611b2c565b9050818110156110505760405162461bcd60e51b815260040161023790611d3f565b039d9c50505050505050505050505050565b600080546001600160a01b0316331461108d5760405162461bcd60e51b815260040161023790611db6565b604051630ede4edd60e41b81526001600160a01b0384169063ede4edd0906110b9908590600401611b9e565b602060405180830381600087803b1580156110d357600080fd5b505af11580156110e7573d6000803e3d6000fd5b505050506040513d601f19601f8201168201806040525061110b9190810190611b2c565b9392505050565b60608161113757506040805180820190915260018152600360fc1b60208201526111d0565b8160005b811561114f57600101600a8204915061113b565b6060816040519080825280601f01601f19166020018201604052801561117c576020820181803883390190505b50905060001982015b85156111ca57600a860660300160f81b828280600190039350815181106111a857fe5b60200101906001600160f81b031916908160001a905350600a86049550611185565b50925050505b919050565b606082826040516020016111ea929190611b70565b604051602081830303815290604052905092915050565b6001600160a01b03163190565b6000806001600160a01b038416734ddc2d193948926d02f9b1fe9e1daa0718270ed514156112525773c02aaa39b223fe8d0a0e5c4f27ead9083c756cc291506112c8565b836001600160a01b0316636f307dc36040518163ffffffff1660e01b8152600401602060405180830381600087803b15801561128d57600080fd5b505af11580156112a1573d6000803e3d6000fd5b505050506040513d601f19601f820116820180604052506112c591908101906117cc565b91505b6001600160a01b038316734ddc2d193948926d02f9b1fe9e1daa0718270ed51415611308575073c02aaa39b223fe8d0a0e5c4f27ead9083c756cc261137e565b826001600160a01b0316636f307dc36040518163ffffffff1660e01b8152600401602060405180830381600087803b15801561134357600080fd5b505af1158015611357573d6000803e3d6000fd5b505050506040513d601f19601f8201168201806040525061137b91908101906117cc565b90505b9250929050565b6000816001600160a01b0316836001600160a01b031614156113fa576001600160a01b03831673c02aaa39b223fe8d0a0e5c4f27ead9083c756cc214156113e257736b175474e89094c44da98b954eedeac495271d0f91506113fa565b73c02aaa39b223fe8d0a0e5c4f27ead9083c756cc291505b60405163e6a4390560e01b8152600090735c69bee701ef814a2b6a3edd4b1652cb9cc5aa6f9063e6a43905906114369087908790600401611bcb565b60206040518083038186803b15801561144e57600080fd5b505afa158015611462573d6000803e3d6000fd5b505050506040513d601f19601f8201168201806040525061148691908101906117cc565b90506001600160a01b0381166114ae5760405162461bcd60e51b815260040161023790611d1e565b806001600160a01b031663fff6cae96040518163ffffffff1660e01b8152600401600060405180830381600087803b1580156114e957600080fd5b505af11580156114fd573d6000803e3d6000fd5b50929695505050505050565b600080600080876001600160a01b0316630dfe16816040518163ffffffff1660e01b815260040160206040518083038186803b15801561154857600080fd5b505afa15801561155c573d6000803e3d6000fd5b505050506040513d601f19601f8201168201806040525061158091908101906117cc565b90506000886001600160a01b031663d21220a76040518163ffffffff1660e01b815260040160206040518083038186803b1580156115bd57600080fd5b505afa1580156115d1573d6000803e3d6000fd5b505050506040513d601f19601f820116820180604052506115f591908101906117cc565b9050816001600160a01b0316886001600160a01b031614611617576000611619565b865b9450806001600160a01b0316886001600160a01b03161461163b57600061163d565b865b935060008060008b6001600160a01b0316630902f1ac6040518163ffffffff1660e01b815260040160606040518083038186803b15801561167d57600080fd5b505afa158015611691573d6000803e3d6000fd5b505050506040513d601f19601f820116820180604052506116b59190810190611ad8565b63ffffffff1692506001600160701b031692506001600160701b031692506000856001600160a01b03168c6001600160a01b0316146116f457826116f6565b835b90506000866001600160a01b03168d6001600160a01b031614611719578461171b565b835b90508a6001600160a01b03168d6001600160a01b0316141561174a576103e56103e88d0204600101975061176a565b6103e8818d02026103e58d84030280828161176157fe5b04600101995050505b505050505050509450945094915050565b6040805160c081018252600080825260208201819052918101829052606081018290526080810182905260a081019190915290565b6000602082840312156117c1578081fd5b813561110b81611eed565b6000602082840312156117dd578081fd5b815161110b81611eed565b600080604083850312156117fa578081fd5b823561180581611eed565b9150602083013561181581611eed565b809150509250929050565b60008060008060808587031215611835578182fd5b843561184081611eed565b9350602085013561185081611eed565b9250604085013561186081611eed565b9396929550929360600135925050565b600080600060408486031215611884578283fd5b833561188f81611eed565b9250602084013567ffffffffffffffff808211156118ab578384fd5b81860187601f8201126118bc578485fd5b80359250818311156118cc578485fd5b87602080850283010111156118df578485fd5b949760209095019650909450505050565b60008060008060808587031215611905578384fd5b843561191081611eed565b93506020850135925060408501359150606085013567ffffffffffffffff8082111561193a578283fd5b81870188601f82011261194b578384fd5b803592508183111561195b578384fd5b61196e601f8401601f1916602001611e6a565b9150828252886020848301011115611984578384fd5b611995836020840160208401611eb1565b5094979396509194505050565b600060208083850312156119b4578182fd5b825167ffffffffffffffff8111156119ca578283fd5b80840185601f8201126119db578384fd5b805191506119f06119eb83611e91565b611e6a565b8281528381019082850185850284018601891015611a0c578687fd5b8693505b84841015611a2e578051835260019390930192918501918501611a10565b50979650505050505050565b600060208284031215611a4b578081fd5b8151801515811461110b578182fd5b600060c08284031215611a6b578081fd5b611a7560c0611e6a565b8251611a8081611eed565b81526020830151611a9081611eed565b60208201526040830151611aa381611eed565b6040820152606083810151908201526080830151611ac081611eed565b608082015260a0928301519281019290925250919050565b600080600060608486031215611aec578283fd5b8351611af781611f05565b6020850151909350611b0881611f05565b604085015190925063ffffffff81168114611b21578182fd5b809150509250925092565b600060208284031215611b3d578081fd5b5051919050565b60008151808452611b5c816020860160208601611ebd565b601f01601f19169290920160200192915050565b60008351611b82818460208801611ebd565b8351908301611b95828260208801611ebd565b01949350505050565b6001600160a01b0391909116815260200190565b6001600160a01b03929092168252602082015260400190565b6001600160a01b0392831681529116602082015260400190565b6001600160a01b0393841681526020810192909252909116604082015260600190565b6020808252810182905260008360408301825b85811015611c4b578235611c2e81611eed565b6001600160a01b0316825260209283019290910190600101611c1b565b5095945050505050565b602080825282518282018190526000918401906040840190835b81811015611c8d578351835260209384019390920191600101611c6f565b509095945050505050565b60006020825261110b6020830184611b44565b60208082526023908201527f63546f6b656e73206861766520646966666572656e7420636f6d7074726f6c6c60408201526265727360e81b606082015260800190565b6020808252601690820152751e995c9bc81c995c185e509bdc9c9bddd05b5bdd5b9d60521b604082015260600190565b6020808252600790820152663737903830b4b960c91b604082015260600190565b6020808252600490820152636e6f706560e01b604082015260600190565b6020808252601d908201527f73656e646572206e6565647320746f206265206c697175696461746f72000000604082015260600190565b602080825260089082015267062616420737761760c41b604082015260600190565b6020808252600990820152683737ba1037bbb732b960b91b604082015260600190565b81516001600160a01b039081168252602080840151821690830152604080840151821690830152606080840151908301526080808401519091169082015260a0918201519181019190915260c00190565b90815260200190565b600085825284602083015260018060a01b038416604083015260806060830152611e606080830184611b44565b9695505050505050565b60405181810167ffffffffffffffff81118282101715611e8957600080fd5b604052919050565b600067ffffffffffffffff821115611ea7578081fd5b5060209081020190565b82818337506000910152565b60005b83811015611ed8578181015183820152602001611ec0565b83811115611ee7576000848401525b50505050565b6001600160a01b0381168114611f0257600080fd5b50565b6001600160701b0381168114611f0257600080fdfea26469706673582212207ae4482899f9e416234c1886e18b860cb59440bbab150ceb5af1b7499933864d64736f6c63430006000033",
  "devdoc": {
    "methods": {}
  },
  "userdoc": {
    "methods": {}
  },
  "storageLayout": {
    "storage": [
      {
        "astId": 282,
        "contract": "contracts/CompoundLiquidator.sol:CompoundLiquidator",
        "label": "owner",
        "offset": 0,
        "slot": "0",
        "type": "t_address"
      }
    ],
    "types": {
      "t_address": {
        "encoding": "inplace",
        "label": "address",
        "numberOfBytes": "20"
      }
    }
  },
  "gasEstimates": {
    "creation": {
      "codeDepositCost": "1603200",
      "executionCost": "22515",
      "totalCost": "1625715"
    },
    "external": {
      "": "196",
      "CETH_ADDRESS()": "341",
      "DAI_ADDRESS()": "297",
      "UNISWAP_FACTORY_ADDRESS()": "296",
      "WETH_ADDRESS()": "253",
      "enterMarkets(address,address[])": "infinite",
      "exitMarket(address,address)": "infinite",
      "liquidate(address,address,address,uint256)": "infinite",
      "owner()": "1092",
      "uniswapV2Call(address,uint256,uint256,bytes)": "infinite",
      "withdraw(address)": "infinite",
      "withdrawEth()": "infinite"
    },
    "internal": {
      "getAmounts(address,address,uint256,address)": "infinite",
      "getUnderlyings(address,address)": "infinite",
      "getUniswapPair(address,address)": "infinite"
    }
  }
}