{
  "abi": [
    {
      "inputs": [],
      "stateMutability": "nonpayable",
      "type": "constructor"
    },
    {
      "stateMutability": "payable",
      "type": "fallback"
    },
    {
      "inputs": [],
      "name": "CETH_ADDRESS",
      "outputs": [
        {
          "internalType": "address",
          "name": "",
          "type": "address"
        }
      ],
      "stateMutability": "view",
      "type": "function"
    },
    {
      "inputs": [],
      "name": "WETH_ADDRESS",
      "outputs": [
        {
          "internalType": "address",
          "name": "",
          "type": "address"
        }
      ],
      "stateMutability": "view",
      "type": "function"
    },
    {
      "inputs": [
        {
          "internalType": "address",
          "name": "comptroller",
          "type": "address"
        },
        {
          "internalType": "address[]",
          "name": "cTokens",
          "type": "address[]"
        }
      ],
      "name": "enterMarkets",
      "outputs": [
        {
          "internalType": "uint256[]",
          "name": "",
          "type": "uint256[]"
        }
      ],
      "stateMutability": "nonpayable",
      "type": "function"
    },
    {
      "inputs": [
        {
          "internalType": "address",
          "name": "comptroller",
          "type": "address"
        },
        {
          "internalType": "address",
          "name": "cToken",
          "type": "address"
        }
      ],
      "name": "exitMarket",
      "outputs": [
        {
          "internalType": "uint256",
          "name": "",
          "type": "uint256"
        }
      ],
      "stateMutability": "nonpayable",
      "type": "function"
    },
    {
      "inputs": [
        {
          "internalType": "address",
          "name": "borrowAccount",
          "type": "address"
        },
        {
          "internalType": "address",
          "name": "cTokenBorrowed",
          "type": "address"
        },
        {
          "internalType": "address",
          "name": "cTokenCollateral",
          "type": "address"
        },
        {
          "internalType": "uint256",
          "name": "repayBorrowAmount",
          "type": "uint256"
        },
        {
          "internalType": "address",
          "name": "uniswapFactory",
          "type": "address"
        }
      ],
      "name": "liquidate",
      "outputs": [
        {
          "internalType": "uint256",
          "name": "",
          "type": "uint256"
        }
      ],
      "stateMutability": "nonpayable",
      "type": "function"
    },
    {
      "inputs": [],
      "name": "owner",
      "outputs": [
        {
          "internalType": "address",
          "name": "",
          "type": "address"
        }
      ],
      "stateMutability": "view",
      "type": "function"
    },
    {
      "inputs": [
        {
          "internalType": "address",
          "name": "sender",
          "type": "address"
        },
        {
          "internalType": "uint256",
          "name": "amount0",
          "type": "uint256"
        },
        {
          "internalType": "uint256",
          "name": "amount1",
          "type": "uint256"
        },
        {
          "internalType": "bytes",
          "name": "_data",
          "type": "bytes"
        }
      ],
      "name": "uniswapV2Call",
      "outputs": [],
      "stateMutability": "nonpayable",
      "type": "function"
    },
    {
      "inputs": [
        {
          "internalType": "address",
          "name": "token",
          "type": "address"
        }
      ],
      "name": "withdraw",
      "outputs": [],
      "stateMutability": "nonpayable",
      "type": "function"
    },
    {
      "inputs": [],
      "name": "withdrawEth",
      "outputs": [],
      "stateMutability": "nonpayable",
      "type": "function"
    },
    {
      "stateMutability": "payable",
      "type": "receive"
    }
  ],
  "address": "0x1ef23e4c1DE08728217AAF0bD1833cfA909638EF",
  "args": [],
  "solcInputHash": "0x0b003bb91de38e6beb204a9648997ed1741cdc7e6d5dff5675e4215ecf2802e5",
  "bytecode": "0x608060405234801561001057600080fd5b50600080546001600160a01b03191633179055611e23806100326000396000f3fe60806040526004361061008a5760003560e01c80634b2bc5df116100595780634b2bc5df1461012057806351cff8d91461014d5780638da5cb5b1461016d578063a0ef91df14610182578063f53cc4b31461019757610091565b8063040141e51461009357806310d1e85c146100be5780634883400d146100de5780634ab45d331461010b57610091565b3661009157005b005b34801561009f57600080fd5b506100a86101b7565b6040516100b591906119e6565b60405180910390f35b3480156100ca57600080fd5b506100916100d9366004611738565b6101cf565b3480156100ea57600080fd5b506100fe6100f93660046116b8565b61095d565b6040516100b59190611a9d565b34801561011757600080fd5b506100a8610a16565b34801561012c57600080fd5b5061014061013b366004611651565b610a2e565b6040516100b59190611cfd565b34801561015957600080fd5b506100916101683660046115e1565b610ea0565b34801561017957600080fd5b506100a8610fd1565b34801561018e57600080fd5b50610091610fe0565b3480156101a357600080fd5b506101406101b2366004611619565b611030565b73c02aaa39b223fe8d0a0e5c4f27ead9083c756cc281565b6101d76115ac565b818060200190516101eb91908101906118a2565b9050306001600160a01b0386161461021e5760405162461bcd60e51b815260040161021590611bf9565b60405180910390fd5b80516001600160a01b0316734ddc2d193948926d02f9b1fe9e1daa0718270ed51415610327576060810151604051632e1a7d4d60e01b815273c02aaa39b223fe8d0a0e5c4f27ead9083c756cc291632e1a7d4d9161027f9190600401611cfd565b600060405180830381600087803b15801561029957600080fd5b505af11580156102ad573d6000803e3d6000fd5b5050505080600001516001600160a01b031663aae40a2a8260600151836040015184602001516040518463ffffffff1660e01b81526004016102f0929190611a13565b6000604051808303818588803b15801561030957600080fd5b505af115801561031d573d6000803e3d6000fd5b505050505061063d565b806060015181600001516001600160a01b0316636f307dc36040518163ffffffff1660e01b8152600401602060405180830381600087803b15801561036b57600080fd5b505af115801561037f573d6000803e3d6000fd5b505050506040513d601f19601f820116820180604052506103a391908101906115fd565b6001600160a01b03166370a08231306040518263ffffffff1660e01b81526004016103ce91906119e6565b60206040518083038186803b1580156103e657600080fd5b505afa1580156103fa573d6000803e3d6000fd5b505050506040513d601f19601f8201168201806040525061041e9190810190611974565b101561043c5760405162461bcd60e51b815260040161021590611c30565b80600001516001600160a01b0316636f307dc36040518163ffffffff1660e01b8152600401602060405180830381600087803b15801561047b57600080fd5b505af115801561048f573d6000803e3d6000fd5b505050506040513d601f19601f820116820180604052506104b391908101906115fd565b8151606083015160405163095ea7b360e01b81526001600160a01b03939093169263095ea7b3926104e89290916004016119fa565b602060405180830381600087803b15801561050257600080fd5b505af1158015610516573d6000803e3d6000fd5b505050506040513d601f19601f8201168201806040525061053a9190810190611882565b50600081600001516001600160a01b031663f5e3c4628360400151846060015185602001516040518463ffffffff1660e01b815260040161057d93929190611a2d565b602060405180830381600087803b15801561059757600080fd5b505af11580156105ab573d6000803e3d6000fd5b505050506040513d601f19601f820116820180604052506105cf9190810190611974565b90508060001461061c6040518060400160405280601c81526020017f6c6971756964617465206661696c206572633230202d20657272632000000000815250610617846110e0565b6111a3565b9061063a5760405162461bcd60e51b81526004016102159190611ae0565b50505b60208101516040516370a0823160e01b81526000916001600160a01b0316906370a08231906106709030906004016119e6565b60206040518083038186803b15801561068857600080fd5b505afa15801561069c573d6000803e3d6000fd5b505050506040513d601f19601f820116820180604052506106c09190810190611974565b9050600082602001516001600160a01b031663db006a75836040518263ffffffff1660e01b81526004016106f49190611cfd565b602060405180830381600087803b15801561070e57600080fd5b505af1158015610722573d6000803e3d6000fd5b505050506040513d601f19601f820116820180604052506107469190810190611974565b9050806000146107846040518060400160405280601381526020017203932b2b232b6903330b4b610169032b939319606d1b815250610617846110e0565b906107a25760405162461bcd60e51b81526004016102159190611ae0565b5060208301516000906001600160a01b0316734ddc2d193948926d02f9b1fe9e1daa0718270ed514156108525773c02aaa39b223fe8d0a0e5c4f27ead9083c756cc263d0e30db06107f2306111cf565b6040518263ffffffff1660e01b81526004016000604051808303818588803b15801561081d57600080fd5b505af1158015610831573d6000803e3d6000fd5b505050505073c02aaa39b223fe8d0a0e5c4f27ead9083c756cc290506108cc565b83602001516001600160a01b0316636f307dc36040518163ffffffff1660e01b8152600401602060405180830381600087803b15801561089157600080fd5b505af11580156108a5573d6000803e3d6000fd5b505050506040513d601f19601f820116820180604052506108c991908101906115fd565b90505b608084015160a085015160405163a9059cbb60e01b81526001600160a01b0384169263a9059cbb92610900926004016119fa565b602060405180830381600087803b15801561091a57600080fd5b505af115801561092e573d6000803e3d6000fd5b505050506040513d601f19601f820116820180604052506109529190810190611882565b505050505050505050565b6000546060906001600160a01b0316331461098a5760405162461bcd60e51b815260040161021590611c89565b604051631853304760e31b81526001600160a01b0385169063c2998238906109b89086908690600401611a50565b600060405180830381600087803b1580156109d257600080fd5b505af11580156109e6573d6000803e3d6000fd5b505050506040513d6000823e601f3d908101601f19168201604052610a0e91908101906117ea565b949350505050565b734ddc2d193948926d02f9b1fe9e1daa0718270ed581565b600080546001600160a01b03163314610a595760405162461bcd60e51b815260040161021590611c89565b836001600160a01b0316856001600160a01b03161415610a8b5760405162461bcd60e51b815260040161021590611b36565b836001600160a01b0316635fe3b5676040518163ffffffff1660e01b8152600401602060405180830381600087803b158015610ac657600080fd5b505af1158015610ada573d6000803e3d6000fd5b505050506040513d601f19601f82011682018060405250610afe91908101906115fd565b6001600160a01b0316856001600160a01b0316635fe3b5676040518163ffffffff1660e01b8152600401602060405180830381600087803b158015610b4257600080fd5b505af1158015610b56573d6000803e3d6000fd5b505050506040513d601f19601f82011682018060405250610b7a91908101906115fd565b6001600160a01b031614610ba05760405162461bcd60e51b815260040161021590611af3565b60008311610bc05760405162461bcd60e51b815260040161021590611b86565b600080610bcd87876111dc565b915091506000846001600160a01b031663e6a4390584846040518363ffffffff1660e01b8152600401610c01929190611a13565b60206040518083038186803b158015610c1957600080fd5b505afa158015610c2d573d6000803e3d6000fd5b505050506040513d601f19601f82011682018060405250610c5191908101906115fd565b90506001600160a01b038116610c795760405162461bcd60e51b815260040161021590611c52565b6000806000610c8984878b611353565b925092509250610c976115ac565b6040518060c001604052808d6001600160a01b031681526020018c6001600160a01b031681526020018e6001600160a01b031681526020018b8152602001866001600160a01b031681526020018381525090506000866001600160a01b03166370a08231306040518263ffffffff1660e01b8152600401610d1891906119e6565b60206040518083038186803b158015610d3057600080fd5b505afa158015610d44573d6000803e3d6000fd5b505050506040513d601f19601f82011682018060405250610d689190810190611974565b9050856001600160a01b031663022c0d9f86863086604051602001610d8d9190611cac565b6040516020818303038152906040526040518563ffffffff1660e01b8152600401610dbb9493929190611d06565b600060405180830381600087803b158015610dd557600080fd5b505af1158015610de9573d6000803e3d6000fd5b50506040516370a0823160e01b8152600092506001600160a01b038a1691506370a0823190610e1c9030906004016119e6565b60206040518083038186803b158015610e3457600080fd5b505afa158015610e48573d6000803e3d6000fd5b505050506040513d601f19601f82011682018060405250610e6c9190810190611974565b905081811015610e8e5760405162461bcd60e51b815260040161021590611bb6565b50505050505050505095945050505050565b6000546001600160a01b03163314610eca5760405162461bcd60e51b815260040161021590611c89565b6040516370a0823160e01b81526000906001600160a01b038316906370a0823190610ef99030906004016119e6565b60206040518083038186803b158015610f1157600080fd5b505afa158015610f25573d6000803e3d6000fd5b505050506040513d601f19601f82011682018060405250610f499190810190611974565b60405163a9059cbb60e01b81529091506001600160a01b0383169063a9059cbb90610f7a90339085906004016119fa565b602060405180830381600087803b158015610f9457600080fd5b505af1158015610fa8573d6000803e3d6000fd5b505050506040513d601f19601f82011682018060405250610fcc9190810190611882565b505050565b6000546001600160a01b031681565b6000546001600160a01b0316331461100a5760405162461bcd60e51b815260040161021590611c89565b336108fc611017306111cf565b6040518115909202916000818181858888f15050505050565b600080546001600160a01b0316331461105b5760405162461bcd60e51b815260040161021590611c89565b604051630ede4edd60e41b81526001600160a01b0384169063ede4edd0906110879085906004016119e6565b602060405180830381600087803b1580156110a157600080fd5b505af11580156110b5573d6000803e3d6000fd5b505050506040513d601f19601f820116820180604052506110d99190810190611974565b9392505050565b60608161110557506040805180820190915260018152600360fc1b602082015261119e565b8160005b811561111d57600101600a82049150611109565b6060816040519080825280601f01601f19166020018201604052801561114a576020820181803883390190505b50905060001982015b851561119857600a860660300160f81b8282806001900393508151811061117657fe5b60200101906001600160f81b031916908160001a905350600a86049550611153565b50925050505b919050565b606082826040516020016111b89291906119b8565b604051602081830303815290604052905092915050565b6001600160a01b03163190565b6000806001600160a01b038416734ddc2d193948926d02f9b1fe9e1daa0718270ed514156112205773c02aaa39b223fe8d0a0e5c4f27ead9083c756cc29150611296565b836001600160a01b0316636f307dc36040518163ffffffff1660e01b8152600401602060405180830381600087803b15801561125b57600080fd5b505af115801561126f573d6000803e3d6000fd5b505050506040513d601f19601f8201168201806040525061129391908101906115fd565b91505b6001600160a01b038316734ddc2d193948926d02f9b1fe9e1daa0718270ed514156112d6575073c02aaa39b223fe8d0a0e5c4f27ead9083c756cc261134c565b826001600160a01b0316636f307dc36040518163ffffffff1660e01b8152600401602060405180830381600087803b15801561131157600080fd5b505af1158015611325573d6000803e3d6000fd5b505050506040513d601f19601f8201168201806040525061134991908101906115fd565b90505b9250929050565b600080600080866001600160a01b0316630dfe16816040518163ffffffff1660e01b815260040160206040518083038186803b15801561139257600080fd5b505afa1580156113a6573d6000803e3d6000fd5b505050506040513d601f19601f820116820180604052506113ca91908101906115fd565b90506000876001600160a01b031663d21220a76040518163ffffffff1660e01b815260040160206040518083038186803b15801561140757600080fd5b505afa15801561141b573d6000803e3d6000fd5b505050506040513d601f19601f8201168201806040525061143f91908101906115fd565b9050816001600160a01b0316876001600160a01b031614611461576000611463565b855b9450806001600160a01b0316876001600160a01b031614611485576000611487565b855b935060008060008a6001600160a01b0316630902f1ac6040518163ffffffff1660e01b815260040160606040518083038186803b1580156114c757600080fd5b505afa1580156114db573d6000803e3d6000fd5b505050506040513d601f19601f820116820180604052506114ff9190810190611920565b63ffffffff1692506001600160701b031692506001600160701b031692506000856001600160a01b03168b6001600160a01b03161461153e5782611540565b835b90506000866001600160a01b03168c6001600160a01b0316146115635784611565565b835b90506115728b8284611584565b97505050505050505093509350939050565b60006103e8838502026103e58584030280828161159d57fe5b04600101925050509392505050565b6040805160c081018252600080825260208201819052918101829052606081018290526080810182905260a081019190915290565b6000602082840312156115f2578081fd5b81356110d981611dc0565b60006020828403121561160e578081fd5b81516110d981611dc0565b6000806040838503121561162b578081fd5b823561163681611dc0565b9150602083013561164681611dc0565b809150509250929050565b600080600080600060a08688031215611668578081fd5b853561167381611dc0565b9450602086013561168381611dc0565b9350604086013561169381611dc0565b92506060860135915060808601356116aa81611dc0565b809150509295509295909350565b6000806000604084860312156116cc578283fd5b83356116d781611dc0565b9250602084013567ffffffffffffffff808211156116f3578384fd5b81860187601f820112611704578485fd5b8035925081831115611714578485fd5b8760208085028301011115611727578485fd5b949760209095019650909450505050565b6000806000806080858703121561174d578384fd5b843561175881611dc0565b93506020850135925060408501359150606085013567ffffffffffffffff80821115611782578283fd5b81870188601f820112611793578384fd5b80359250818311156117a3578384fd5b6117b6601f8401601f1916602001611d3d565b91508282528860208483010111156117cc578384fd5b6117dd836020840160208401611d84565b5094979396509194505050565b600060208083850312156117fc578182fd5b825167ffffffffffffffff811115611812578283fd5b80840185601f820112611823578384fd5b8051915061183861183383611d64565b611d3d565b8281528381019082850185850284018601891015611854578687fd5b8693505b84841015611876578051835260019390930192918501918501611858565b50979650505050505050565b600060208284031215611893578081fd5b815180151581146110d9578182fd5b600060c082840312156118b3578081fd5b6118bd60c0611d3d565b82516118c881611dc0565b815260208301516118d881611dc0565b602082015260408301516118eb81611dc0565b604082015260608381015190820152608083015161190881611dc0565b608082015260a0928301519281019290925250919050565b600080600060608486031215611934578283fd5b835161193f81611dd8565b602085015190935061195081611dd8565b604085015190925063ffffffff81168114611969578182fd5b809150509250925092565b600060208284031215611985578081fd5b5051919050565b600081518084526119a4816020860160208601611d90565b601f01601f19169290920160200192915050565b600083516119ca818460208801611d90565b83519083016119dd828260208801611d90565b01949350505050565b6001600160a01b0391909116815260200190565b6001600160a01b03929092168252602082015260400190565b6001600160a01b0392831681529116602082015260400190565b6001600160a01b0393841681526020810192909252909116604082015260600190565b6020808252810182905260008360408301825b85811015611a93578235611a7681611dc0565b6001600160a01b0316825260209283019290910190600101611a63565b5095945050505050565b602080825282518282018190526000918401906040840190835b81811015611ad5578351835260209384019390920191600101611ab7565b509095945050505050565b6000602082526110d9602083018461198c565b60208082526023908201527f63546f6b656e73206861766520646966666572656e7420636f6d7074726f6c6c60408201526265727360e81b606082015260800190565b60208082526030908201527f63546f6b656e426f72726f77656420616e642063546f6b656e436f6c6c61746560408201526f72616c20617265207468652073616d6560801b606082015260800190565b6020808252601690820152751e995c9bc81c995c185e509bdc9c9bddd05b5bdd5b9d60521b604082015260600190565b60208082526023908201527f656e642062616c616e6365206c657373207468616e2073746172742062616c616040820152626e636560e81b606082015260800190565b6020808252601d908201527f73656e646572206e6565647320746f206265206c697175696461746f72000000604082015260600190565b602080825260089082015267062616420737761760c41b604082015260600190565b6020808252601a908201527f756e6973776170207061697220646f65736e2774206578697374000000000000604082015260600190565b6020808252600990820152683737ba1037bbb732b960b91b604082015260600190565b81516001600160a01b039081168252602080840151821690830152604080840151821690830152606080840151908301526080808401519091169082015260a0918201519181019190915260c00190565b90815260200190565b600085825284602083015260018060a01b038416604083015260806060830152611d33608083018461198c565b9695505050505050565b60405181810167ffffffffffffffff81118282101715611d5c57600080fd5b604052919050565b600067ffffffffffffffff821115611d7a578081fd5b5060209081020190565b82818337506000910152565b60005b83811015611dab578181015183820152602001611d93565b83811115611dba576000848401525b50505050565b6001600160a01b0381168114611dd557600080fd5b50565b6001600160701b0381168114611dd557600080fdfea26469706673582212204a75b9ede3c5bd9b8168c94ac8bf3e847a0dc136fbe8ee45d8e7a94c1c43342264736f6c63430006000033",
  "devdoc": {
    "methods": {}
  },
  "userdoc": {
    "methods": {}
  },
  "storageLayout": {
    "storage": [
      {
        "astId": 276,
        "contract": "contracts/CompoundLiquidator.sol:CompoundLiquidator",
        "label": "owner",
        "offset": 0,
        "slot": "0",
        "type": "t_address"
      }
    ],
    "types": {
      "t_address": {
        "encoding": "inplace",
        "label": "address",
        "numberOfBytes": "20"
      }
    }
  },
  "gasEstimates": {
    "creation": {
      "codeDepositCost": "1543000",
      "executionCost": "22452",
      "totalCost": "1565452"
    },
    "external": {
      "": "174",
      "CETH_ADDRESS()": "319",
      "WETH_ADDRESS()": "253",
      "enterMarkets(address,address[])": "infinite",
      "exitMarket(address,address)": "infinite",
      "liquidate(address,address,address,uint256,address)": "infinite",
      "owner()": "1114",
      "uniswapV2Call(address,uint256,uint256,bytes)": "infinite",
      "withdraw(address)": "infinite",
      "withdrawEth()": "infinite"
    },
    "internal": {
      "getAmountIn(uint256,uint256,uint256)": "103",
      "getAmounts(address,address,uint256)": "infinite",
      "getUnderlyings(address,address)": "infinite"
    }
  }
}